:020000040000FA
:03000000000004F9
:0300010003804336
:03000200000400F7
:030003000294253F
:03000400003F8535
:03000500021AC11B
:0300060001404373
:0300070002D02BF9
:0300080003F043BF
:0300090001CBEE3A
:03000A0001941F3F
:03000B00007F482B
:03000C0003C94CD9
:03000D0000B375C8
:03000E0000846506
:03000F000088075F
:03001000020F8755
:0300110002714138
:030012000308B52B
:0300130001367E35
:0300140002604146
:0300150003F0A550
:0300160003574449
:030017000208A13B
:03001800017E1B4B
:030019000335E2CA
:03001A0000B2EE43
:03001B00037CED76
:03001C0001204080
:03001D00032DEAC6
:03001E00033B871A
:03001F0002E341B8
:0300200003C3C750
:0300210003804019
:0300220003C040D8
:03002300022FC0E9
:03002400007F1446
:030025000062DF97
:0300260003940739
:0300270003CFB252
:0300280002D734C8
:0300290002700B57
:03002A000063D49C
:03002B0002803F11
:03002C000297092F
:03002D00027DF25F
:03002E00000EB20F
:03002F000126F1B6
:0300300003A83EE4
:030031000178074C
:03003200007F8FBD
:0300330002ABE538
:0300340001EDDCFF
:03003500003A038B
:0300360003889CA0
:0300370001D5935D
:030038000120772D
:03003900036C71E4
:03003A0002C03DC4
:03003B000126207B
:03003C0000ABE036
:03003D000362C09B
:03003E00035F75E8
:03003F0002BA1EE4
:03004000038E3DEF
:0300410003FAB10E
:030042000221ADEB
:030043000028B1E1
:03004400003883FE
:03004500007D2714
:030046000325D8B7
:030047000265024D
:0300480000703C09
:0300490003803CF5
:03004A0001D0D50D
:03004B0001A0F120
:03004C00013285F9
:03004D0002CA8E56
:03004E0000B10CF2
:03004F000130F687
:0300500002983BD8
:030051000337B4BE
:0300520001632423
:0300530003712C0A
:0300540003BB4AA1
:03005500009DD13A
:030056000077E24E
:0300570001AB6595
:03005800029D07FF
:0300590001B432BD
:03005A00015B0542
:03005B0003FE5150
:03005C00000D9400
:03005D0003FAF0B3
:03005E00023B283A
:03005F0001459ABE
:0300600003943ACC
:0300610003A3896D
:0300620003F29610
:030063000302F3A2
:030064000358B28C
:03006500037A61BA
:0300660001F101A4
:0300670001480746
:03006800000D5038
:0300690000D121A2
:03006A000226204B
:03006B0002A14FA0
:03006C0000DA07B0
:03006D000369F62E
:03006E0000ED158D
:03006F000001A9E4
:030070000348380A
:0300710001638C9C
:0300720000F8A7EC
:0300730000AEC418
:03007400032F4D0A
:030075000325DE82
:030076000340380C
:03007700022E4412
:0300780002A20AD7
:03007900034FB082
:03007A0002ED7123
:03007B0000339EB1
:03007C0001DC980C
:03007D0002A4CA10
:03007E00014AA68E
:03007F00008EA34D
:0300800003333710
:0300810003FCD2AB
:0300820001B1DCED
:03008300031AB1AC
:0300840003019BDA
:030085000032D175
:03008600017C7387
:0300870001AE8245
:03008800039AE1F7
:030089000215510C
:03008A0003F36914
:03008B00000C99CD
:03008C00013A2016
:03008D0002570C0B
:03008E00024036F7
:03008F0003D43E59
:0300900001F387F2
:03009100038036B3
:03009200035E2BDF
:03009300007300F7
:0300940001A607BB
:0300950001E04245
:03009600000C64F7
:030097000316CC81
:0300980001ED82F5
:03009900038035AC
:03009A0002C0356C
:03009B0002A0724E
:03009C0002157AD0
:03009D00001572D9
:03009E00039816AE
:03009F000396B70E
:0300A000030C3519
:0300A10000F4FC6C
:0300A200004F0507
:0300A3000019CE73
:0300A40003565CA4
:0300A5000107331D
:0300A600003058CF
:0300A70003D74C30
:0300A80003030748
:0300A90000BBF9A0
:0300AA00000C0740
:0300AB0003FE84CD
:0300AC0003A0347A
:0300AD0001FF450B
:0300AE00022B4ED4
:0300AF0003354DC9
:0300B000002FA579
:0300B100002E1608
:0300B2000245C440
:0300B300018D2B91
:0300B400011C210B
:0300B500000BD667
:0300B6000176CB05
:0300B7000078D5F9
:0300B800002F18FE
:0300B90003B80782
:0300BA0002335DB1
:0300BB0002C21F5F
:0300BC0000869922
:0300BD0002A45A40
:0300BE00004033CC
:0300BF000080338B
:0300C000028BA709
:0300C100018B1799
:0300C20000A8444F
:0300C300030E2306
:0300C40003E8E06E
:0300C5000265D6FB
:0300C60001B393F0
:0300C7000101D163
:0300C8000381743D
:0300C90000648C44
:0300CA0002DE5003
:0300CB0002231AF3
:0300CC0001686B5D
:0300CD0003E4E168
:0300CE0000D03D22
:0300CF0003635A6E
:0300D00002D83122
:0300D1000269D3EE
:0300D2000154676F
:0300D30002D52C27
:0300D400022A728B
:0300D50002939DF6
:0300D60003511EB5
:0300D70003A47609
:0300D80002D03122
:0300D9000017E528
:0300DA0002C03130
:0300DB00020EB959
:0300DC00014A28AE
:0300DD0003BA2A39
:0300DE0000A76D0B
:0300DF00035B9E22
:0300E00003216891
:0300E10003447263
:0300E20003115CAB
:0300E30001D5C183
:0300E40002E03007
:0300E50001803067
:0300E60001063AD6
:0300E70000C3B89B
:0300E800000B0703
:0300E900022F6F74
:0300EA0002852A62
:0300EB0000615859
:0300EC00031A07ED
:0300ED0002062BDD
:0300EE00007DA0F2
:0300EF0001D9280C
:0300F00001726634
:0300F10002A3E285
:0300F20000C9033F
:0300F300033E11B8
:0300F40001602F79
:0300F500028D6019
:0300F60002247E63
:0300F70003853E40
:0300F80002102FC4
:0300F9000126B429
:0300FA00002B05D3
:0300FB0002802F51
:0300FC00038A1163
:0300FD0002AD5CF5
:0300FE00034F8E1F
:0300FF0000D6F632
:0301000002AAAFA1
:0301010000329E2B
:0301020000D774AF
:030103000002AC4B
:03010400011E8653
:0301050003960A54
:0301060002D5051A
:03010700024807A4
:03010800015C6334
:0301090003802E42
:03010A0000223D93
:03010B0002B2221B
:03010C0002A02E20
:03010D00035D6F20
:03010E00005BAEE5
:03010F00010D6C73
:0301100000E5E522
:0301110003590B84
:0301120003DB8983
:0301130001E2BD49
:0301140000E4BA4A
:030115000058454A
:0301160003B4D659
:03011700027296DB
:03011800000A5C7E
:0301190003F5AF3C
:03011A0001AEC46F
:03011B0000B07AB7
:03011C0000765E0C
:03011D00007CA5BE
:03011E0000402D71
:03011F00033E7E1E
:0301200000F5C720
:0301210000E4D91E
:03012200028B301D
:030123000168E789
:0301240000FEBE1C
:0301250000CE16F3
:030126000058F38B
:030127000321F5BC
:0301280000AC5FC9
:03012900007C0F48
:03012A0002158239
:03012B0000FDCE06
:03012C0000BAA86E
:03012D0000D25BA2
:03012E0000CBCF34
:03012F00002E811E
:03013000028286C2
:0301310003508BED
:030132000221D1D6
:0301330002802C1B
:0301340003F606C9
:03013500020E5C5B
:030136000054BAB8
:0301370002553F2F
:03013800039C998C
:0301390003B80602
:03013A0002355338
:03013B0002A2D746
:03013C00008F79B8
:03013D00038AAB87
:03013E000324692E
:03013F0002ED3995
:0301400002762B19
:030141000150D793
:03014200030F5D4B
:0301430003446210
:0301440001831420
:03014500015F2334
:03014600026CC583
:030147000040B4C1
:0301480002702B17
:030149000090E93A
:03014A0002392D4A
:03014B0002FFB6FA
:03014C00027BC56E
:03014D0000451753
:03014E0003F3E9CF
:03014F000120F696
:03015000036573D1
:03015100025B143A
:03015200019C0607
:0301530000C2F3F4
:03015400036AFC3F
:03015500012FBCBB
:0301560001AD48B0
:0301570000802AFB
:03015800014566F8
:03015900039A7492
:03015A00031D4141
:03015B00036C3200
:03015C0000261E5C
:03015D0000EA4F66
:03015E00015884C1
:03015F000110ED9F
:0301600003B42ABB
:0301610000E34F69
:03016200003FDE7D
:03016300016BCA63
:030164000009741B
:0301650003BBAC2D
:030166000025AEC3
:0301670000EB2684
:0301680001B02AB9
:0301690002193C3C
:03016A0001CB4B7B
:03016B00006BAF77
:03016C0001A029C6
:03016D00010EE799
:03016E00025E7CB2
:03016F000135E572
:03017000013C86C9
:03017100021A2B44
:030172000377050B
:0301730000FBABE3
:0301740002511A1B
:030175000320B4B0
:0301760003143E31
:0301770001D5E1CE
:0301780003102948
:03017900026E050E
:03017A00039AC421
:03017B0002421924
:03017C0002101658
:03017D0002B12E9E
:03017E0003D23376
:03017F0001205606
:0301800002492908
:0301810002FA98E7
:0301820002E2F0A6
:0301830001B0DAEE
:0301840003135C06
:0301850002B9D6E6
:030186000054061C
:03018700039205DB
:030188000024430D
:0301890001BB8F28
:03018A0000090F5A
:03018B0002BE4071
:03018C00018CFCE7
:03018D00002772D6
:03018E0002402804
:03018F000389FEE3
:0301900003B82889
:03019100027E31BA
:03019200038FFBDD
:0301930002A1BB0B
:030194000367FB03
:0301950001979B34
:0301960000E5CDB4
:0301970001081844
:0301980001B4545B
:0301990002A0AD14
:03019A000383A03C
:03019B000013FC52
:03019C000008E276
:03019D000319C182
:03019E0000FE5B05
:03019F00016EC12D
:0301A000002353E6
:0301A10000D4C0C7
:0301A200033C0615
:0301A300031270D4
:0301A400001198AF
:0301A50001F365FE
:0301A600007209DB
:0301A70003480604
:0301A800023027FB
:0301A90000E584EA
:0301AA0003237FAD
:0301AB0000A5C6E6
:0301AC00012852D5
:0301AD0000676583
:0301AE00021F8AA3
:0301AF00020D97A7
:0301B00003EEA9B2
:0301B100038027A1
:0301B200007FBF0C
:0301B30002AB6735
:0301B40001C15E28
:0301B5000180279F
:0301B60001A68D12
:0301B70001F3A2AF
:0301B8000226BD5F
:0301B90001FF7AC9
:0301BA00013DBC48
:0301BB0003A1A8F5
:0301BC0000EBAAAB
:0301BD0000DC70F3
:0301BE000334ED1A
:0301BF0003B6572D
:0301C000022226F2
:0301C100023A17E8
:0301C20003C02651
:0301C3000276942D
:0301C400021FE235
:0301C500027ED2E5
:0301C60003566974
:0301C7000069E9E3
:0301C800017CD8DF
:0301C9000252F9E6
:0301CA0002B05030
:0301CB00025921B5
:0301CC000111ED31
:0301CD00029F7519
:0301CE0002C6B8AE
:0301CF00014CF2EE
:0301D00001F79F95
:0301D100008C7629
:0301D20000D16CED
:0301D300028CB3E8
:0301D4000184B8EB
:0301D50001802581
:0301D6000245E2FD
:0301D700039D0E77
:0301D800014D06D0
:0301D900031D62A1
:0301DA0000D5F459
:0301DB00023EC918
:0301DC00032025D8
:0301DD0003428A50
:0301DE00026EB1FD
:0301DF00006D8C24
:0301E000010846CD
:0301E100000844CF
:0301E200013721C1
:0301E300005EB209
:0301E400014903CB
:0301E50003C056FE
:0301E600038F265E
:0301E70000802570
:0301E800025E397B
:0301E90000F4829D
:0301EA00000E53B1
:0301EB0003773661
:0301EC0002FAEA2A
:0301ED0002656642
:0301EE000182D1BA
:0301EF00001F8A64
:0301F000020824DE
:0301F10003096798
:0301F20002F04DCB
:0301F300018A047A
:0301F40002A3F073
:0301F500020BA456
:0301F600038EE98C
:0301F70002FBBA4E
:0301F800002044A0
:0301F90002CAE750
:0301FA0002CA3303
:0301FB0003ECEC26
:0301FC00020206F6
:0301FD0000D8A681
:0301FE000040249A
:0301FF00000806EF
:00000001ff
