:020000040000FA
:0300000003FFB546
:0300010002812B4E
:030002000105B342
:03000300038D0E5C
:0300040002176C74
:0300050000A4A1B3
:030006000334AE12
:0300070001C7939B
:03000800005D4A4E
:0300090002F5C13C
:03000A000190F969
:03000B00002EF1D3
:03000C0002CF958B
:03000D000172E29B
:03000E000018DCFB
:03000F0002C16CBF
:03001000016C9BE5
:03001100001A6171
:0300120002CAAC73
:03001300017D87E5
:030014000032D6E1
:0300150002EAA656
:0300160001A4EE54
:030017000061A2E3
:030018000320BE04
:0300190001E22AD7
:03001A0000A6122B
:03001B00036C343F
:03001C000234BAF1
:03001D0000FF8B56
:03001E0003CCA36D
:03001F00029BF54C
:03002000016D86E9
:0300210000415E3D
:0300220003175F62
:0300230001EF7D6D
:0300240000C9CC44
:0300250003A64AE5
:030026000284D67B
:03002700016588E8
:0300280000484A43
:03002900032D168E
:03002A000213F9C5
:03002B0000FCD600
:03002C0003E7B037
:03002D0002D48971
:03002E0001C361AA
:03002F0000B42FEB
:0300300003A6DC48
:03003100029B80AF
:0300320001920B2D
:03003300008A7CC4
:030034000384C082
:030035000280E561
:03003600017EDB6D
:03003700007EA3A5
:030038000380330F
:0300390002838BB4
:03003A000188B486
:03003B00008FA291
:03003C00039842E4
:03003D0002A29389
:03003E0001AEA967
:03003F0000BC748E
:0300400003CBE20D
:0300410002DCF7E7
:0300420001EFB813
:030043000104169F
:03004400001A1D82
:030045000331C5BF
:03004600024AF477
:030047000165B59B
:0300480000821D16
:0300490003A0060B
:03004A0002BF7181
:03004B0001E0765B
:03004C000102F8B6
:03004D000026F397
:03004E00034C76EA
:03004F00027362D7
:03005000019BD041
:0300510000C5B334
:0300520003F10FA8
:03005300031DCDBD
:03005400024BF16B
:03005500017B80AC
:0300560000AC8279
:0300570003DED4F1
:0300580003127D13
:03005900024797C4
:03005A00017E0321
:03005B0000B5BA33
:03005C0003EECFE1
:03005D0003293143
:03005E000264DD5C
:03005F0001A1D626
:0300600000E0209D
:03006100001FA0DD
:0300620003606ECA
:0300630002A27A7C
:0300640001E5BFF4
:03006500012A4924
:03006600006FF434
:0300670003B6E5F8
:0300680002FF058F
:0300690002485AF0
:03006A000192E11F
:03006B0000DE9321
:03006C00002B6105
:03006D00037967AD
:03006E0002C88441
:03006F000218CCA8
:03007000016A26FC
:0300710000BCAA26
:0300720000104536
:0300730003650919
:0300740002BACC01
:030075000211B8BD
:030076000169A875
:0300770000C2A91B
:03007800001CB6B3
:030079000377E02A
:03007A0002D40AA3
:03007B000231301F
:03007C00018F6D84
:03007D0000EEAAE8
:03007E00004EE051
:03007F0003B018B3
:0300800003125315
:0300810002758B7A
:0300820001D9B9E8
:03008300013EE15A
:0300840000A4FADB
:03008500000C016B
:0300860003740FF1
:0300870002DD0097
:030088000246D855
:0300890001B1AC16
:03008A00011D57FE
:03008B000089FEEB
:03008C0003F788EF
:03008D000365F216
:03008E0002D54652
:03008F0002457BAC
:0300900001B68D29
:0300910001287FC4
:03009200009B4987
:03009300000EEA72
:0300940003837073
:0300950002F8D29C
:03009600026EFFF8
:0300970001E6007F
:03009800015DD433
:0300990000D67E10
:03009A00004FF71D
:03009B0003CA385D
:03009C00034557C2
:03009D0002C13766
:03009E00023DD947
:03009F0001BB4959
:0300A0000139849F
:0300A10000B87E26
:0300A200003841E2
:0300A30003B8C1DE
:0300A400033A0715
:0300A50002BC0199
:0300A600023EBD5A
:0300A70001C24251
:0300A80001467896
:0300A90000CB6425
:0300AA00005117EB
:0300AB0003D77404
:0300AC00035E915F
:0300AD0002E66404
:0300AE00026EDB04
:0300AF0001F8084D
:0300B0000181F1DA
:0300B100010C76C9
:0300B2000097B9FB
:0300B3000023AC7B
:0300B40003B0385E
:0300B500033D8088
:0300B60002CB6A10
:0300B7000259FDEE
:0300B80001E92F2C
:0300B900017919B1
:0300BA0001099E9B
:0300BB00009ABEEA
:0300BC00002C8590
:0300BD0003BEED92
:0300BE000351FBF0
:0300BF0002E5A8AF
:0300C0000279E5DD
:0300C100020EC06C
:0300C20001A44056
:0300C300013A53AC
:0300C40000D10365
:0300C50000683F91
:0300C60000001D1A
:0300C70003989B00
:0300C80003319C65
:0300C90002CB3433
:0300CA0002656963
:0300CB000200210F
:0300CC00019B781D
:0300CD00013752A6
:0300CE0000D3C795
:0300CF000070BA04
:0300D000000E43DC
:0300D10003AC611C
:0300D200034AFAE4
:0300D30002EA2B13
:0300D4000289D4CA
:0300D500022A14E8
:0300D60001CAD28A
:0300D700016C19A0
:0300D800010DE433
:0300D90000B03242
:0300DA00005308C8
:0300DB0003F653D6
:0300DC00039A2B59
:0300DD00033E805F
:0300DE0002E35DDD
:0300DF000288B3E1
:0300E000022E8A63
:0300E10001D4DF68
:0300E200017BA7F8
:0300E3000122F502
:0300E40000CAAFA0
:0300E5000072E9BD
:0300E600001BA953
:0300E70003C4D27D
:0300E800036E7B29
:0300E90003188D6C
:0300EA0002C32826
:0300EB00026E2F73
:0300EC000219A84E
:0300ED0001C596B4
:0300EE000171EEAF
:0300EF00011ECA25
:0300F00000CC0938
:0300F1000079C1D2
:0300F2000027DC08
:0300F30003D67AB7
:0300F4000385720F
:0300F5000334EAE7
:0300F60002E4C859
:0300F7000295016E
:0300F8000245B509
:0300F90001F6DB32
:0300FA0001A85EFC
:0300FB00015A495E
:0300FC00010C9A5A
:0300FD0000BF5EE3
:0300FE000072800D
:0300FF00002611C7
:0301000003DA100F
:03010100038E6406
:0301020003431A9A
:0301030002F83FC0
:0301040002ADC188
:030105000263ACE6
:030106000219F9E2
:0301070001D0A183
:030108000187A7C5
:03010900013F0DA6
:03010A0000F6DF1D
:03010B0000AF083A
:03010C0000678CFD
:03010D0000206C63
:03010E0003D9B65C
:03010F0003935304
:03011000034D4C50
:030111000307934E
:0301120002C241E5
:03011300027D4D1D
:030114000238B7F7
:0301150001F4757D
:0301160001B088AD
:03011700016CF880
:030118000129B703
:0301190000E6CB32
:03011A0000A43E00
:03011B000062017E
:03011C000020219F
:03011D0003DE9767
:03011E00039D53EB
:03011F00035C6816
:03012000031BDDE1
:0301210002DB8C72
:03012200029B9F9E
:03012300025C0279
:03012400021CB208
:0301250001DDAB4E
:03012600019F0531
:030127000160A0D4
:0301280001228F22
:0301290000E4CB24
:03012A0000A764C7
:03012B00006A3433
:03012C00002D6043
:03012D0003F0CC10
:03012E0003B49087
:03012F0003789CB6
:03013000033CE8A5
:0301310003018E39
:0301320002C68181
:03013300028BB28A
:030134000251274E
:030135000216F7B8
:0301360001DD0CDC
:0301370001A363BE
:030138000169FC5E
:030139000130DEB4
:03013A0000F813B7
:03013B0000BF7F83
:03013C0000873306
:03013D00004F363A
:03013E0000177730
:03013F0003DFFFDC
:0301400003A8C948
:030141000371DA6D
:03014200033B3448
:030143000304C4EE
:0301440002CEA345
:030145000298BF5E
:0301460002631B36
:03014700022DBBCB
:0301480001F89625
:0301490001C3BB34
:03014A00018F1E04
:03014B00015AB3A3
:03014C00012699F0
:03014D0000F2B20B
:03014E0000BF09E6
:03014F00008BB270
:03015000005886CE
:0301510000259DE9
:0301520003F2EACB
:0301530003C08561
:03015400038E56C1
:03015500035C5DEB
:03015600032AA7D2
:0301570002F91E8C
:0301580002C7DFFC
:030159000296DA31
:03015A000266003A
:03015B0002356CFE
:03015C0002051782
:03015D0001D4EEDC
:03015E0001A50CEC
:03015F00017567C0
:030160000145E96D
:030161000116AED6
:0301620000E7A40F
:0301630000B8D40D
:03016400008A3CD2
:03016500005BE359
:03016600002DADBC
:0301670003FFC1D2
:0301680003D205BA
:0301690003A4727A
:03016A00037724F4
:03016B00034A063E
:03016C00031D135D
:03016D0002F0633A
:03016E0002C3DFEA
:03016F0002979064
:03017000026B74AB
:03017100023F94B6
:030172000213E590
:0301730001E8613F
:0301740001BD0BBF
:030175000191F302
:0301760001670A14
:03017700013C4BFD
:030178000111C4AE
:0301790000E7712B
:03017A0000BD4184
:03017B00009347A7
:03017C0000698295
:03017D00003FEC54
:03017E00001686E2
:03017F0003ED4944
:0301800003C45065
:03018100039B706D
:030182000372C045
:03018300034A42EA
:030184000321F95B
:0301850002F9D6A6
:0301860002D1DBC8
:0301870002AA1DAC
:030188000282767A
:03018900025B070F
:03018A000233D36A
:03018B00020CB7AC
:03018C0001E5D3B7
:03018D0001BF208F
:03018E000198864F
:03018F00017224D6
:03019000014BE937
:030191000125D372
:0301920000FFF477
:0301930000DA3D52
:0301940000B4A70D
:03019500008F4098
:03019600006A01FB
:030197000044F22F
:030198000020063E
:0301990003FB471E
:03019A0003D6AFDA
:03019B0003B23A72
:03019C00038DFAD6
:03019D000369D41F
:03019E000345DA3C
:03019F0003220731
:0301A00002FE5FFD
:0301A10002DAE19E
:0301A20002B7861B
:0301A30002945172
:0301A4000271469F
:0301A500024E67A0
:0301A600022BA188
:0301A70002090941
:0301A80001E698D5
:0301A90001C4513D
:0301AA0001A2208F
:0301AB00018015BB
:0301AC00015E38B9
:0301AD00013C8290
:0301AE00011AE74C
:0301AF0000F97CD8
:0301B00000D83242
:0301B10000B70E86
:0301B200009608AC
:0301B30000751FB5
:0301B4000054678D
:0301B5000033CF45
:0301B600001353E0
:0301B70003F2FC54
:0301B80003D2C9A6
:0301B90003B2B7D7
:0301BA000392CDE0
:0301BB00037300CB
:0301BC0003535D8D
:0301BD000333D534
:0301BE00031472B5
:0301BF0002F53214
:0301C00002D60B59
:0301C10002B70F73
:0301C20002982977
:0301C30002796A54
:0301C400025AC913
:0301C500023C4AAF
:0301C600021DF225
:0301C70001FFB283
:0301C80001E19CB6
:0301C90001C39BD4
:0301CA0001A5B8D4
:0301CB000187FBAE
:0301CC00016A5A6B
:0301CD00014CDB07
:0301CE00012F7886
:0301CF0001122BEF
:0301D00000F5082F
:0301D10000D8084B
:0301D20000BB224D
:0301D300009E6229
:0301D4000081B3F4
:0301D50000651CA6
:0301D6000048B925
:0301D700002C6891
:0301D800001029EB
:0301D90003F40F1D
:0301DA0003D81730
:0301DB0003BC471B
:0301DC0003A07C01
:0301DD000384DDBB
:0301DE0003695A58
:0301DF00034DF0DD
:0301E00003329A4D
:0301E10003176A97
:0301E20002FC50CC
:0301E30002E154E2
:0301E40002C67ED2
:0301E50002ABB5B5
:0301E60002910B78
:0301E70002768A13
:0301E800025C10A6
:0301E9000241C40C
:0301EA0002278C5D
:0301EB00020D669C
:0301EC0001F358C4
:0301ED0001D97BBA
:0301EE0001BFA9A5
:0301EF0001A5EC7B
:0301F000018C453A
:0301F1000172C9CF
:0301F2000159644C
:0301F30001400DBB
:0301F4000126E4FD
:0301F500010DC633
:0301F60000F4BC56
:0301F70000DBD456
:0301F80000C30041
:0301F90000AA4D0C
:0301FA000091B0C1
:0301FB0000792B5D
:0301FC000060BFE1
:0301FD0000486453
:0301FE0000302CA2
:0301FF0000180BDA
:00000001ff
