:020000040000FA
:0300000000000DF0
:0300010002811267
:03000200020801F0
:03000300029ADF7F
:03000400003F6D4D
:0300050002FB8A71
:0300060002D4EF32
:0300070003D14AD8
:0300080001F63BC3
:0300090001495E4C
:03000A0001D034EE
:03000B000390332C
:03000C00028ED091
:03000D0002D165B8
:03000E00005D3F53
:03000F000337AC08
:030010000365DBAA
:0300110000ECF808
:0300120003D229ED
:03001300001A7759
:0300140001CAF22C
:0300150000E88C74
:0300160001783638
:03001700037ED392
:0300180003013BA6
:03001900000440A0
:03001A00028C8DC8
:03001B00029EF052
:03001C00003FFFA3
:03001D0003745F0A
:03001E000040A5FA
:03001F0002A95DD6
:0300200002B2FF2A
:030021000061FA81
:0300220003BAC25C
:0300230000C1B960
:03002400037B2833
:0300250003EB5892
:0300260002169827
:0300270002010FC4
:0300280003AEF430
:0300290003246A43
:03002A00006582EC
:03002B0003765801
:03002C00005AF087
:03002D0003174373
:03002E0003AF45D8
:03002F000226E4C2
:0300300002820940
:0300310000C48385
:0300320000F226B3
:03003300030EBBFE
:03003400031E06A2
:030035000123B9EB
:030036000123851E
:0300370003211191
:03003800031FFCA7
:030039000123DBC5
:03003A000130365C
:03003B00034896E1
:03003C00037083CB
:03003D0001AB6FA5
:03003E0001FCBF03
:03003F000067E077
:0300400000F03895
:0300410003991B05
:030042000065D77F
:030043000359B9A5
:030044000077FD45
:0300450003C3E012
:0300460001409FD7
:0300470000F16263
:0300480002D94298
:0300490002FB6E49
:03004A00015AFE5A
:03004B0001FAF5C2
:03004C0000DE696A
:03004D0002086145
:03004E00017BD063
:03004F00033BBCB4
:03005000034B0659
:0300510001ACA05F
:03005200026368DE
:03005300017247F0
:0300540002DC11BA
:0300550002A39370
:0300560000CB9547
:030057000156EB64
:0300580000484F0E
:0300590001A27091
:03005A0001680D2D
:03005B00039BD72D
:03005C0000406DF4
:03005D00035878CD
:03005E0000E69623
:03005F0000ED5D54
:03006000036F5AD1
:03006100006F2805
:0300620003EF4267
:0300630001F22F78
:03006400027A70AD
:03006500018A7598
:030066000324C0B0
:03006700034BAC9C
:030068000201ADE5
:0300690003492226
:03006A0003246A02
:03006B000195E11B
:03006C00029FE20E
:03006D000244B09A
:03006E000086A465
:03006F000167F92D
:0300700000EAFFA4
:030071000311E593
:0300720003DEECBE
:03007300035440F3
:03007400017422F2
:030075000240A99D
:0300760001BC0EBC
:0300770003E86B30
:0300780000C7E1DD
:03007900005C80A8
:03007A0002A86C6D
:03007B0003ADB51D
:03007C00036E5DB3
:03007D0001EC761D
:03007E00032A0949
:03007F0003291240
:0300800001EB8B06
:0300810003737195
:0300820003C2BBFB
:0300830002DB5746
:0300840000BF3882
:03008500017047C0
:0300860000F05D2A
:0300870003416CC6
:03008800006551BF
:03008900005DDC3B
:03008A00032CF450
:03008B0000D45B43
:03008C000155EB30
:03008D0000B3714C
:03008E0002EEB2CD
:03008F00000975F0
:0300900000057FE9
:0300910002E48AFC
:0300920000A8556E
:030093000152997E
:0300940000E50183
:03009500036144C0
:0300960000C9148A
:03009700011E192E
:030098000061FB09
:0300990002965973
:03009A0003BCD9CB
:03009B0003D71B6D
:03009C0002E6AFCA
:03009D0000ED393A
:03009E0001EC4E24
:03009F0001E57800
:0300A00000DA463D
:0300A10002CC4C42
:0300A20003BD0A91
:0300A30003AE0E9B
:0300A40002A0D3E4
:0300A5000096E3DF
:0300A6000191B411
:0300A7000192BC07
:0300A800009B7E3C
:0300A90002AD6D38
:0300AA0003C9F196
:0300AB0003F287D6
:0300AC0003289294
:0300AD00016D8062
:0300AE0002C2BFCC
:0300AF000329AE74
:0300B00002A3A800
:0300B10001321FFA
:0300B20002D65D16
:0300B3000391C5F1
:0300B4000365B928
:0300B50002537C77
:0300B600005C6F7C
:0300B7000181DEE6
:0300B80001C51C63
:0300B900012769B3
:0300BA0003AA1B7B
:0300BB00014E7A79
:0300BC000215C466
:0300BD0002013EFF
:0300BE0001122507
:0300BF000349BC36
:0300C00000A94351
:0300C1000131EE1C
:0300C20000E4EF68
:0300C30003C386EE
:0300C40001CEDD8D
:0300C500030830FD
:0300C6000370A123
:0300C70003095DCD
:0300C80001D39CC5
:0300C90003D07DE4
:0300CA000101220F
:0300CB000166BC0F
:0300CC0001025ED0
:0300CD0003D53721
:0300CE0001E058F6
:0300CF000324EB1C
:0300D00003A3FE89
:0300D100035EAA21
:0300D200025610C3
:0300D300008B3867
:0300D40001FF41E8
:0300D50002B32E45
:0300D60002A81964
:0300D70001DF093D
:0300D80000590BC1
:0300D900021728E3
:0300DA00031A65A1
:0300DB000363D0EC
:0300DC0002F461CA
:0300DD0001CD2131
:0300DE0003EF0C21
:0300DF00015B259D
:0300E000021266A3
:0300E1000215CA3B
:0300E20001665163
:0300E3000004E82E
:0300E40001F29195
:0300E500033036AF
:0300E60003BEC98D
:0300E700039F462E
:0300E80002D291B0
:0300E9000159A515
:0300EA0003355B80
:0300EB000066AFFD
:0300EC0000EE83A0
:0300ED0000CDC182
:0300EE00000550BA
:0300EF0002960A6C
:0300F0000080E1AC
:0300F10001C6AC99
:0300F2000268534E
:0300F3000266A8FA
:0300F40001C299AD
:0300F500007CEF9D
:0300F600029692DD
:0300F70000105E98
:0300F80000EB1BFF
:0300F9000127A339
:0300FA0000C6D469
:0300FB0003C97CBA
:0300FC0002306D62
:0300FD0003FC7091
:0300FE00012E5F71
:0300FF0001C6FF38
:0301000001C71B19
:03010100012F8A41
:03010200000111E8
:03010300023C6F4C
:0301040003E2759E
:0301050000F3E321
:0301060001717F05
:03010700015C1088
:0301080000B457E9
:03010900037B1263
:03010A0001B0FB46
:03010B000356DABE
:03010C00006D6B18
:03010D0000F56793
:03010E0000EF827D
:03010F00005C8110
:03011000033D1795
:0301110001920256
:03011200035BEBA1
:03011300009B8BC3
:0301140001519501
:03011500017EC1A7
:030116000123BF03
:0301170000413A6A
:0301180002D7E922
:0301190000E87784
:03011A0002738AE3
:03011B000379D78E
:03011C0003FC00E1
:03011D0003FAB32F
:03011E000376A0C5
:03011F0002706605
:0301200000E8A54F
:0301210002E018E1
:0301220000574C37
:03012300014EF09A
:0301240001C7A66A
:0301250001C21202
:03012600013EC8CF
:03012700003E781F
:0301280002C1B45D
:0301290000C91FEB
:03012A0002554E2D
:03012B000366EC7C
:03012C0003FE834C
:03012D00001CBBF8
:03012E0003C21EEB
:03012F0002EF4D8F
:0301300001A4E245
:0301310003E3677E
:0301320001AB75A9
:0301330002FDA921
:0301340003DA9259
:030135000042B7CE
:030136000036B5DB
:0301370003B71BF0
:0301380002C47A84
:03013900015F5E05
:03013A0003884DEA
:03013B00013FE49D
:03013C000286A692
:03013D00035D1B44
:03013E0003C3D325
:03013F0003BB57A8
:0301400003442F46
:03014100025EE279
:03014200010BF5B9
:03014300034BF873
:03014400011F6335
:030145000286C56A
:030146000382A091
:030147000013732F
:030148000039C7B4
:0301490003F616A4
:03014A000348E582
:03014B000232BAC3
:03014C0000B406F6
:03014D0002CD558B
:03014E00007F200F
:03014F0001C9DB08
:0301500002AE13E9
:03015100032C3943
:030152000344CE95
:0301530002F8406F
:030154000247144B
:030155000131C4B1
:0301560003B8BF2C
:0301570001DC8840
:03015800039D887C
:0301590000FC3B6C
:03015A0001F91F89
:03015B0002949B70
:03015C0002CF25AA
:03015D0002A93ABA
:03015E0002234039
:03015F00013DACB3
:0301600003F8FBA6
:03016100025590B4
:030162000053E364
:0301630001F45E46
:03016400033771ED
:03016500001D87F3
:0301660000A71AD5
:0301670000D4853C
:0301680000A63FAF
:03016900001CB7C0
:03016A0003384C0B
:03016B0001F96F28
:03016C00006090A0
:03016D00026E0916
:03016E0000224E1E
:03016F00017DC34C
:030170000280D139
:03017100032BD984
:03017200037F46C2
:03017300037B818A
:030174000320ED78
:03017500026FE82E
:030176000168DB42
:03017700000C2B4E
:03017800025A37F1
:03017900005360D0
:03017A0001F81178
:03017B000348A195
:03017C00004572C9
:03017D0000EEE5AC
:03017E0001455ADE
:03017F00014934FF
:0301800000FAC3BF
:03018100005A79A8
:030182000368A966
:030183000225AFA3
:030184000091E403
:0301850002ADAE1A
:0301860000796499
:0301870001F55728
:030188000321F65A
:0301890003FF88E9
:03018A00008E667E
:03018B0000CEFAA9
:03018C0000C18B24
:03018D0000667594
:03018E0003BE1B92
:03018F0002C8C5DE
:030190000186D114
:0301910003F896DA
:03019200021E60EA
:0301930003F88BE3
:0301940001877070
:0301950002CB5B3F
:0301960003C4A4FB
:0301970000739959
:0301980000D893F9
:0301990000F3E090
:03019A0000C5D4C9
:03019B00004EC251
:03019C00038EF2DD
:03019D000286C215
:03019E0001367AAD
:03019F00039E6A52
:0301A00001BEE0BD
:0301A10003982C94
:0301A200012A9D92
:0301A3000276825F
:0301A400037C26B3
:0301A500003BD448
:0301A60000B5E3BE
:0301A70000EA93D8
:0301A80000DA3545
:0301A900008512BC
:0301AA0003EB7EE6
:0301AB00030DBE83
:0301AC0001EC174C
:0301AD000086D5F4
:0301AE0002DE4826
:0301AF0000F2AFAC
:0301B00002C45B2B
:0301B10000539068
:0301B20001A09A0F
:0301B30002ABC1DB
:0301B4000375428E
:0301B50003FD6DDA
:0301B60000448A78
:0301B700004ADA21
:0301B8000010A391
:0301B90003962D7D
:0301BA0002DBB7AE
:0301BB0001E18DD2
:0301BC0000A7ECAD
:0301BD00032F1FEE
:0301BE0001776561
:0301BF00038101B8
:0301C000014C3CB3
:0301C10002D94E12
:0301C2000028858D
:0301C300013A19E5
:0301C400020E50D8
:0301C50002A56B25
:0301C60002FFA491
:0301C700031D47CE
:0301C80002FE89AB
:0301C90002A3B4DA
:0301CA00020D041F
:0301CB00013AB244
:0301CC00002D04FF
:0301CD0002E43514
:0301CE0001608449
:0301CF0003A23454
:0301D00001A9770B
:0301D10003769022
:0301D2000109BD63
:0301D3000263368E
:0301D40003834161
:0301D500006A18A5
:0301D6000117E727
:0301D700018CFB9D
:0301D80001C98ECC
:0301D90001CDD382
:0301DA00019A0582
:0301DB00012E5A98
:0301DC00008B1E77
:0301DD0003B078F4
:0301DE00029EA7D7
:0301DF000155E7E0
:0301E00003D673D0
:0301E10002207A7F
:0301E20000343DA9
:0301E3000211EE18
:0301E40003B9C29A
:0301E500012BFBF0
:0301E6000268C9E3
:0301E70003705D45
:0301E8000042FDD5
:0301E90000E0CE65
:0301EA00014A11B6
:0301EB00017EFC96
:0301EC00017FC4CC
:0301ED00014C8F33
:0301EE0000E5A683
:0301EF00004B388A
:0301F000037D7913
:0301F100027C93FA
:0301F2000148C3FE
:0301F30003E241E3
:0301F4000249318C
:0301F500007DD7B3
:0301F60002806024
:0301F7000050FABB
:0301F80001EFDC38
:0301F900035D3271
:0301FA0000993534
:0301FB0001A41349
:0301FC00027DFE83
:0301FD0003272BAA
:0301FE00039FC19B
:0301FF0003E7F81B
:00000001ff
