:020000040000FA
:0200000080007E
:02000100807FFE
:0200020080FE7E
:02000300817CFE
:0200040081FA7F
:02000500827601
:0200060082F284
:02000700836D07
:0200080083E88B
:0200090084620F
:02000A0084DB95
:02000B0085531B
:02000C0085CBA2
:02000D00864229
:02000E0086B9B1
:02000F00872E3A
:0200100087A3C4
:0200110088184D
:02001200888BD9
:0200130088FF64
:020014008971F0
:0200150089E37D
:020016008A540A
:020017008AC499
:020018008B3427
:020019008BA4B6
:02001A008C1246
:02001B008C80D7
:02001C008CEE68
:02001D008D5AFA
:02001E008DC78C
:02001F008E321F
:020020008E9DB3
:020021008F0846
:020022008F71DC
:020023008FDB71
:02002400904307
:0200250090AB9E
:02002600911334
:02002700917ACC
:0200280091E065
:020029009246FD
:02002A0092AC96
:02002B00931030
:02002C009375CA
:02002D0093D866
:02002E00943B01
:02002F00949E9D
:02003000950039
:020031009562D6
:0200320095C374
:02003300962312
:020034009683B1
:0200350096E350
:020036009742EF
:0200370097A090
:0200380097FE31
:02003900985CD1
:02003A0098B973
:02003B00991515
:02003C009971B8
:02003D0099CD5B
:02003E009A28FE
:02003F009A83A2
:020040009ADD47
:020041009B36EC
:020042009B9091
:020043009BE838
:020044009C41DD
:020045009C9885
:020046009CF02C
:020047009D47D3
:020048009D9D7C
:020049009DF325
:02004A009E49CD
:02004B009E9E77
:02004C009EF321
:02004D009F47CB
:02004E009F9B76
:02004F009FEE22
:02005000A041CD
:02005100A09479
:02005200A0E626
:02005300A138D2
:02005400A18980
:02005500A1DA2E
:02005600A22BDB
:02005700A27B8A
:02005800A2CB39
:02005900A31AE8
:02005A00A36998
:02005B00A3B749
:02005C00A406F8
:02005D00A453AA
:02005E00A4A15B
:02005F00A4EE0D
:02006000A53ABF
:02006100A58771
:02006200A5D225
:02006300A61ED7
:02006400A6698B
:02006500A6B43F
:02006600A6FEF4
:02006700A748A8
:02006800A7925D
:02006900A7DB13
:02006A00A824C8
:02006B00A86D7E
:02006C00A8B535
:02006D00A8FDEC
:02006E00A945A2
:02006F00A98C5A
:02007000A9D312
:02007100AA19CA
:02007200AA5F83
:02007300AAA53C
:02007400AAEBF5
:02007500AB30AE
:02007600AB7568
:02007700ABB923
:02007800ABFEDD
:02007900AC4297
:02007A00AC8553
:02007B00ACC80F
:02007C00AD0BCA
:02007D00AD4E86
:02007E00AD9043
:02007F00ADD200
:02008000AE14BC
:02008100AE557A
:02008200AE9638
:02008300AED7F6
:02008400AF18B3
:02008500AF5872
:02008600AF9831
:02008700AFD7F1
:02008800B017AF
:02008900B0566F
:02008A00B09430
:02008B00B0D3F0
:02008C00B111B0
:02008D00B14F71
:02008E00B18C33
:02008F00B1CAF4
:02009000B207B5
:02009100B24378
:02009200B2803A
:02009300B2BCFD
:02009400B2F8C0
:02009500B33383
:02009600B36F46
:02009700B3AA0A
:02009800B3E5CE
:02009900B41F92
:02009A00B45957
:02009B00B4931C
:02009C00B4CDE1
:02009D00B507A5
:02009E00B5406B
:02009F00B57931
:0200A000B5B2F7
:0200A100B5EABE
:0200A200B62284
:0200A300B65A4B
:0200A400B69212
:0200A500B6CAD9
:0200A600B701A0
:0200A700B73868
:0200A800B76F30
:0200A900B7A5F9
:0200AA00B7DBC2
:0200AB00B8118A
:0200AC00B84753
:0200AD00B87D1C
:0200AE00B8B2E6
:0200AF00B8E7B0
:0200B000B91C79
:0200B100B95143
:0200B200B9850E
:0200B300B9B9D9
:0200B400B9EDA4
:0200B500BA216E
:0200B600BA5539
:0200B700BA8805
:0200B800BABBD1
:0200B900BAEE9D
:0200BA00BB2069
:0200BB00BB5335
:0200BC00BB8502
:0200BD00BBB7CF
:0200BE00BBE99C
:0200BF00BC1A69
:0200C000BC4C36
:0200C100BC7D04
:0200C200BCAED2
:0200C300BCDEA1
:0200C400BD0F6E
:0200C500BD3F3D
:0200C600BD6F0C
:0200C700BD9FDB
:0200C800BDCFAA
:0200C900BDFE7A
:0200CA00BE2E48
:0200CB00BE5D18
:0200CC00BE8CE8
:0200CD00BEBAB9
:0200CE00BEE989
:0200CF00BF1759
:0200D000BF452A
:0200D100BF73FB
:0200D200BFA1CC
:0200D300BFCF9D
:0200D400BFFC6F
:0200D500C02940
:0200D600C05612
:0200D700C083E4
:0200D800C0B0B6
:0200D900C0DC89
:0200DA00C1085B
:0200DB00C1342E
:0200DC00C16001
:0200DD00C18CD4
:0200DE00C1B7A8
:0200DF00C1E37B
:0200E000C20E4E
:0200E100C23922
:0200E200C264F6
:0200E300C28FCA
:0200E400C2B99F
:0200E500C2E374
:0200E600C30D48
:0200E700C3371D
:0200E800C361F2
:0200E900C38BC7
:0200EA00C3B49D
:0200EB00C3DE72
:0200EC00C40747
:0200ED00C4301D
:0200EE00C459F3
:0200EF00C481CA
:0200F000C4AAA0
:0200F100C4D277
:0200F200C4FA4E
:0200F300C52224
:0200F400C54AFB
:0200F500C572D2
:0200F600C599AA
:0200F700C5C181
:0200F800C5E859
:0200F900C60F30
:0200FA00C63608
:0200FB00C65CE1
:0200FC00C683B9
:0200FD00C6A992
:0200FE00C6D06A
:0200FF00C6F643
:02010000C71C1A
:02010100C742F3
:02010200C768CC
:02010300C78DA6
:02010400C7B280
:02010500C7D859
:02010600C7FD33
:02010700C8220C
:02010800C847E6
:02010900C86BC1
:02010A00C8909B
:02010B00C8B476
:02010C00C8D950
:02010D00C8FD2B
:02010E00C92105
:02010F00C945E0
:02011000C968BC
:02011100C98C97
:02011200C9AF73
:02011300C9D34E
:02011400C9F62A
:02011500CA1905
:02011600CA3CE1
:02011700CA5FBD
:02011800CA819A
:02011900CAA476
:02011A00CAC653
:02011B00CAE830
:02011C00CB0A0C
:02011D00CB2CE9
:02011E00CB4EC6
:02011F00CB70A3
:02012000CB9280
:02012100CBB35E
:02012200CBD53B
:02012300CBF619
:02012400CC17F6
:02012500CC38D4
:02012600CC59B2
:02012700CC7A90
:02012800CC9A6F
:02012900CCBB4D
:02012A00CCDB2C
:02012B00CCFB0B
:02012C00CD1BE9
:02012D00CD3CC7
:02012E00CD5BA7
:02012F00CD7B86
:02013000CD9B65
:02013100CDBA45
:02013200CDDA24
:02013300CDF904
:02013400CE18E3
:02013500CE38C2
:02013600CE57A2
:02013700CE7583
:02013800CE9463
:02013900CEB343
:02013A00CED124
:02013B00CEF004
:02013C00CF0EE4
:02013D00CF2CC5
:02013E00CF4AA6
:02013F00CF6887
:02014000CF8668
:02014100CFA449
:02014200CFC22A
:02014300CFDF0C
:02014400CFFDED
:02014500D01ACE
:02014600D037B0
:02014700D05591
:02014800D07273
:02014900D08E56
:02014A00D0AB38
:02014B00D0C81A
:02014C00D0E5FC
:02014D00D101DE
:02014E00D11EC0
:02014F00D13AA3
:02015000D15686
:02015100D17269
:02015200D18E4C
:02015300D1AA2F
:02015400D1C612
:02015500D1E2F5
:02015600D1FDD9
:02015700D219BB
:02015800D2349F
:02015900D25082
:02015A00D26B66
:02015B00D2864A
:02015C00D2A12E
:02015D00D2BC12
:02015E00D2D7F6
:02015F00D2F2DA
:02016000D30CBE
:02016100D327A2
:02016200D34286
:02016300D35C6B
:02016400D37650
:02016500D39134
:02016600D3AB19
:02016700D3C5FE
:02016800D3DFE3
:02016900D3F9C8
:02016A00D412AD
:02016B00D42C92
:02016C00D44677
:02016D00D45F5D
:02016E00D47942
:02016F00D49228
:02017000D4AB0E
:02017100D4C4F4
:02017200D4DDDA
:02017300D4F6C0
:02017400D50FA5
:02017500D5288B
:02017600D54171
:02017700D55A57
:02017800D5723E
:02017900D58B24
:02017A00D5A30B
:02017B00D5BBF2
:02017C00D5D4D8
:02017D00D5ECBF
:02017E00D604A5
:02017F00D61C8C
:02018000D63473
:02018100D64C5A
:02018200D66342
:02018300D67B29
:02018400D69310
:02018500D6AAF8
:02018600D6C2DF
:02018700D6D9C7
:02018800D6F0AF
:02018900D70796
:02018A00D71F7D
:02018B00D73665
:02018C00D74D4D
:02018D00D76435
:02018E00D77A1E
:02018F00D79106
:02019000D7A8EE
:02019100D7BED7
:02019200D7D5BF
:02019300D7EBA8
:02019400D8028F
:02019500D81878
:02019600D82E61
:02019700D84549
:02019800D85B32
:02019900D8711B
:02019A00D88704
:02019B00D89DED
:02019C00D8B2D7
:02019D00D8C8C0
:02019E00D8DEA9
:02019F00D8F393
:0201A000D9097B
:0201A100D91E65
:0201A200D9344E
:0201A300D94938
:0201A400D95E22
:0201A500D9740B
:0201A600D989F5
:0201A700D99EDF
:0201A800D9B3C9
:0201A900D9C8B3
:0201AA00D9DC9E
:0201AB00D9F188
:0201AC00DA0671
:0201AD00DA1B5B
:0201AE00DA2F46
:0201AF00DA4430
:0201B000DA581B
:0201B100DA6D05
:0201B200DA81F0
:0201B300DA95DB
:0201B400DAA9C6
:0201B500DABDB1
:0201B600DAD29B
:0201B700DAE686
:0201B800DAFA71
:0201B900DB0D5C
:0201BA00DB2147
:0201BB00DB3532
:0201BC00DB491D
:0201BD00DB5C09
:0201BE00DB70F4
:0201BF00DB83E0
:0201C000DB97CB
:0201C100DBAAB7
:0201C200DBBEA2
:0201C300DBD18E
:0201C400DBE47A
:0201C500DBF766
:0201C600DC0A51
:0201C700DC1D3D
:0201C800DC3029
:0201C900DC4315
:0201CA00DC5601
:0201CB00DC69ED
:0201CC00DC7CD9
:0201CD00DC8EC6
:0201CE00DCA1B2
:0201CF00DCB39F
:0201D000DCC68B
:0201D100DCD878
:0201D200DCEB64
:0201D300DCFD51
:0201D400DD0F3D
:0201D500DD2229
:0201D600DD3416
:0201D700DD4603
:0201D800DD58F0
:0201D900DD6ADD
:0201DA00DD7CCA
:0201DB00DD8EB7
:0201DC00DDA0A4
:0201DD00DDB192
:0201DE00DDC37F
:0201DF00DDD56C
:0201E000DDE65A
:0201E100DDF847
:0201E200DE0A33
:0201E300DE1B21
:0201E400DE2C0F
:0201E500DE3EFC
:0201E600DE4FEA
:0201E700DE60D8
:0201E800DE72C5
:0201E900DE83B3
:0201EA00DE94A1
:0201EB00DEA58F
:0201EC00DEB67D
:0201ED00DEC76B
:0201EE00DED859
:0201EF00DEE947
:0201F000DEF936
:0201F100DF0A23
:0201F200DF1B11
:0201F300DF2B00
:0201F400DF3CEE
:0201F500DF4DDC
:0201F600DF5DCB
:0201F700DF6EB9
:0201F800DF7EA8
:0201F900DF8E97
:0201FA00DF9F85
:0201FB00DFAF74
:0201FC00DFBF63
:0201FD00DFCF52
:0201FE00DFDF41
:0201FF00DFEF30
:00000001ff
