:020000040000FA
:010000003FC0
:010001003FBF
:010002003FBE
:010003003EBE
:010004003EBD
:010005003EBC
:010006003DBC
:010007003DBB
:010008003DBA
:010009003CBA
:01000A003CB9
:01000B003CB8
:01000C003BB8
:01000D003BB7
:01000E003BB6
:01000F003AB6
:010010003AB5
:010011003AB4
:0100120039B4
:0100130039B3
:0100140039B2
:0100150038B2
:0100160038B1
:0100170038B0
:0100180037B0
:0100190037AF
:01001A0037AE
:01001B0036AE
:01001C0036AD
:01001D0036AC
:01001E0035AC
:01001F0035AB
:0100200035AA
:0100210035A9
:0100220034A9
:0100230034A8
:0100240034A7
:0100250033A7
:0100260033A6
:0100270033A5
:0100280033A4
:0100290032A4
:01002A0032A3
:01002B0032A2
:01002C0031A2
:01002D0031A1
:01002E0031A0
:01002F00319F
:01003000309F
:01003100309E
:01003200309D
:01003300309C
:010034002F9C
:010035002F9B
:010036002F9A
:010037002F99
:010038002E99
:010039002E98
:01003A002E97
:01003B002E96
:01003C002D96
:01003D002D95
:01003E002D94
:01003F002D93
:010040002C93
:010041002C92
:010042002C91
:010043002C90
:010044002C8F
:010045002B8F
:010046002B8E
:010047002B8D
:010048002B8C
:010049002A8C
:01004A002A8B
:01004B002A8A
:01004C002A89
:01004D002A88
:01004E002988
:01004F002987
:010050002986
:010051002985
:010052002885
:010053002884
:010054002883
:010055002882
:010056002881
:010057002781
:010058002780
:01005900277F
:01005A00277E
:01005B00277D
:01005C00267D
:01005D00267C
:01005E00267B
:01005F00267A
:010060002679
:010061002678
:010062002578
:010063002577
:010064002576
:010065002575
:010066002574
:010067002474
:010068002473
:010069002472
:01006A002471
:01006B002470
:01006C00246F
:01006D00236F
:01006E00236E
:01006F00236D
:01007000236C
:01007100236B
:01007200236A
:01007300226A
:010074002269
:010075002268
:010076002267
:010077002266
:010078002265
:010079002165
:01007A002164
:01007B002163
:01007C002162
:01007D002161
:01007E002160
:01007F002060
:01008000205F
:01008100205E
:01008200205D
:01008300205C
:01008400205B
:01008500205A
:010086001F5A
:010087001F59
:010088001F58
:010089001F57
:01008A001F56
:01008B001F55
:01008C001E55
:01008D001E54
:01008E001E53
:01008F001E52
:010090001E51
:010091001E50
:010092001E4F
:010093001E4E
:010094001D4E
:010095001D4D
:010096001D4C
:010097001D4B
:010098001D4A
:010099001D49
:01009A001D48
:01009B001C48
:01009C001C47
:01009D001C46
:01009E001C45
:01009F001C44
:0100A0001C43
:0100A1001C42
:0100A2001C41
:0100A3001B41
:0100A4001B40
:0100A5001B3F
:0100A6001B3E
:0100A7001B3D
:0100A8001B3C
:0100A9001B3B
:0100AA001B3A
:0100AB001A3A
:0100AC001A39
:0100AD001A38
:0100AE001A37
:0100AF001A36
:0100B0001A35
:0100B1001A34
:0100B2001A33
:0100B3001A32
:0100B4001932
:0100B5001931
:0100B6001930
:0100B700192F
:0100B800192E
:0100B900192D
:0100BA00192C
:0100BB00192B
:0100BC00192A
:0100BD00182A
:0100BE001829
:0100BF001828
:0100C0001827
:0100C1001826
:0100C2001825
:0100C3001824
:0100C4001823
:0100C5001822
:0100C6001821
:0100C7001721
:0100C8001720
:0100C900171F
:0100CA00171E
:0100CB00171D
:0100CC00171C
:0100CD00171B
:0100CE00171A
:0100CF001719
:0100D0001718
:0100D1001618
:0100D2001617
:0100D3001616
:0100D4001615
:0100D5001614
:0100D6001613
:0100D7001612
:0100D8001611
:0100D9001610
:0100DA00160F
:0100DB00150F
:0100DC00150E
:0100DD00150D
:0100DE00150C
:0100DF00150B
:0100E000150A
:0100E1001509
:0100E2001508
:0100E3001507
:0100E4001506
:0100E5001505
:0100E6001504
:0100E7001404
:0100E8001403
:0100E9001402
:0100EA001401
:0100EB001400
:0100EC0014FF
:0100ED0014FE
:0100EE0014FD
:0100EF0014FC
:0100F00014FB
:0100F10014FA
:0100F20014F9
:0100F30013F9
:0100F40013F8
:0100F50013F7
:0100F60013F6
:0100F70013F5
:0100F80013F4
:0100F90013F3
:0100FA0013F2
:0100FB0013F1
:0100FC0013F0
:0100FD0013EF
:0100FE0013EE
:0100FF0013ED
:0101000012EC
:0101010012EB
:0101020012EA
:0101030012E9
:0101040012E8
:0101050012E7
:0101060012E6
:0101070012E5
:0101080012E4
:0101090012E3
:01010A0012E2
:01010B0012E1
:01010C0012E0
:01010D0012DF
:01010E0011DF
:01010F0011DE
:0101100011DD
:0101110011DC
:0101120011DB
:0101130011DA
:0101140011D9
:0101150011D8
:0101160011D7
:0101170011D6
:0101180011D5
:0101190011D4
:01011A0011D3
:01011B0011D2
:01011C0011D1
:01011D0010D1
:01011E0010D0
:01011F0010CF
:0101200010CE
:0101210010CD
:0101220010CC
:0101230010CB
:0101240010CA
:0101250010C9
:0101260010C8
:0101270010C7
:0101280010C6
:0101290010C5
:01012A0010C4
:01012B0010C3
:01012C0010C2
:01012D000FC2
:01012E000FC1
:01012F000FC0
:010130000FBF
:010131000FBE
:010132000FBD
:010133000FBC
:010134000FBB
:010135000FBA
:010136000FB9
:010137000FB8
:010138000FB7
:010139000FB6
:01013A000FB5
:01013B000FB4
:01013C000FB3
:01013D000FB2
:01013E000FB1
:01013F000EB1
:010140000EB0
:010141000EAF
:010142000EAE
:010143000EAD
:010144000EAC
:010145000EAB
:010146000EAA
:010147000EA9
:010148000EA8
:010149000EA7
:01014A000EA6
:01014B000EA5
:01014C000EA4
:01014D000EA3
:01014E000EA2
:01014F000EA1
:010150000EA0
:010151000E9F
:010152000D9F
:010153000D9E
:010154000D9D
:010155000D9C
:010156000D9B
:010157000D9A
:010158000D99
:010159000D98
:01015A000D97
:01015B000D96
:01015C000D95
:01015D000D94
:01015E000D93
:01015F000D92
:010160000D91
:010161000D90
:010162000D8F
:010163000D8E
:010164000D8D
:010165000D8C
:010166000D8B
:010167000C8B
:010168000C8A
:010169000C89
:01016A000C88
:01016B000C87
:01016C000C86
:01016D000C85
:01016E000C84
:01016F000C83
:010170000C82
:010171000C81
:010172000C80
:010173000C7F
:010174000C7E
:010175000C7D
:010176000C7C
:010177000C7B
:010178000C7A
:010179000C79
:01017A000C78
:01017B000C77
:01017C000C76
:01017D000C75
:01017E000C74
:01017F000B74
:010180000B73
:010181000B72
:010182000B71
:010183000B70
:010184000B6F
:010185000B6E
:010186000B6D
:010187000B6C
:010188000B6B
:010189000B6A
:01018A000B69
:01018B000B68
:01018C000B67
:01018D000B66
:01018E000B65
:01018F000B64
:010190000B63
:010191000B62
:010192000B61
:010193000B60
:010194000B5F
:010195000B5E
:010196000B5D
:010197000B5C
:010198000B5B
:010199000A5B
:01019A000A5A
:01019B000A59
:01019C000A58
:01019D000A57
:01019E000A56
:01019F000A55
:0101A0000A54
:0101A1000A53
:0101A2000A52
:0101A3000A51
:0101A4000A50
:0101A5000A4F
:0101A6000A4E
:0101A7000A4D
:0101A8000A4C
:0101A9000A4B
:0101AA000A4A
:0101AB000A49
:0101AC000A48
:0101AD000A47
:0101AE000A46
:0101AF000A45
:0101B0000A44
:0101B1000A43
:0101B2000A42
:0101B3000A41
:0101B4000A40
:0101B5000A3F
:0101B6000A3E
:0101B700093E
:0101B800093D
:0101B900093C
:0101BA00093B
:0101BB00093A
:0101BC000939
:0101BD000938
:0101BE000937
:0101BF000936
:0101C0000935
:0101C1000934
:0101C2000933
:0101C3000932
:0101C4000931
:0101C5000930
:0101C600092F
:0101C700092E
:0101C800092D
:0101C900092C
:0101CA00092B
:0101CB00092A
:0101CC000929
:0101CD000928
:0101CE000927
:0101CF000926
:0101D0000925
:0101D1000924
:0101D2000923
:0101D3000922
:0101D4000921
:0101D5000920
:0101D600091F
:0101D700091E
:0101D800091D
:0101D900081D
:0101DA00081C
:0101DB00081B
:0101DC00081A
:0101DD000819
:0101DE000818
:0101DF000817
:0101E0000816
:0101E1000815
:0101E2000814
:0101E3000813
:0101E4000812
:0101E5000811
:0101E6000810
:0101E700080F
:0101E800080E
:0101E900080D
:0101EA00080C
:0101EB00080B
:0101EC00080A
:0101ED000809
:0101EE000808
:0101EF000807
:0101F0000806
:0101F1000805
:0101F2000804
:0101F3000803
:0101F4000802
:0101F5000801
:0101F6000800
:0101F70008FF
:0101F80008FE
:0101F90008FD
:0101FA0008FC
:0101FB0008FB
:0101FC0008FA
:0101FD0008F9
:0101FE0008F8
:0101FF0008F7
:00000001ff
