:020000040000FA
:030000000100FB01
:030001000102FFFA
:030002000104E214
:030003000106E50E
:030004000108C52B
:03000500010AAD40
:03000600010C9654
:03000700010E7572
:0300080001104C98
:03000900011224BD
:03000A000113F7E8
:03000B000115C01C
:03000C0001178851
:03000D0001195284
:03000E00011B0FC4
:03000F00011CD100
:03001000011E8846
:0300110001203794
:030012000121E8E1
:0300130001238A3C
:030014000125388B
:030015000126DAE7
:030016000128714D
:03001700012A09B2
:03001800012B9C1D
:03001900012D4472
:03001A00012EC0F4
:03001B0001305F52
:03001C000131E2CD
:03001D0001336646
:03001E000134E5C5
:03001F000136693E
:030020000137E8BD
:0300210001394F53
:03002200013ABEE2
:03002300013C3D60
:03002400013DAEED
:03002500013F0D8B
:0300260001407A1C
:030027000141D6BE
:030028000143325F
:03002900014491FE
:03002A000145DFAE
:03002B0001473852
:03002C00014892F6
:03002D000149E89E
:03002E00014B3251
:03002F00014C740D
:03003000014DC9B6
:03003100014F0A72
:0300320001504A30
:0300330001517FF9
:030034000152C2B4
:030035000153F57F
:0300360001552E43
:030037000156600F
:03003800015797D6
:030039000158CD9E
:03003A000159F178
:03003B00015B1056
:03003C00015C362E
:03003D00015D66FC
:03003E00015E81DF
:03003F00015F95C9
:030040000160B3A9
:030041000161D486
:030042000162EA6E
:030043000164064F
:0300440001651340
:030045000166173A
:0300460001672F20
:0300470001684607
:030048000169410A
:03004900016A4BFE
:03004A00016B5AED
:03004B00016C51F4
:03004C00016D50F3
:03004D00016E53EE
:03004E00016F49F6
:03004F0001704EEF
:03005000017147F4
:0300510001723900
:0300520001732116
:0300530001741421
:0300540001750A29
:030055000175FB37
:030056000176D759
:030057000177C668
:030058000178BE6E
:0300590001799793
:03005A00017A78B0
:03005B00017B64C2
:03005C00017C40E4
:03005D00017D1E04
:03005E00017DFF22
:03005F00017ED946
:03006000017FAA73
:0300610001808A91
:03006200018159C0
:0300630001822CEB
:030064000182FF17
:030065000183C450
:030066000184A46E
:030067000185719F
:0300680001863FCF
:0300690001870606
:03006A000187C744
:03006B0001888881
:03006C00018958AF
:03006D00018A10F5
:03006E00018AD72D
:03006F00018B956D
:03007000018C5FA1
:03007100018D19E5
:03007200018DD825
:03007300018E807B
:03007400018F45B4
:03007500018FF206
:030076000190AC4A
:030077000191658F
:0300780001921ED4
:030079000192C22F
:03007A0001936E81
:03007B0001942AC3
:03007C000194CF1D
:03007D0001957872
:03007E00019629BF
:03007F000196D413
:0300800001977A6B
:0300810001981CC7
:030082000198C121
:030083000199647C
:03008400019A09D5
:03008500019AB429
:03008600019B4596
:03008700019BE6F4
:03008800019C8E4A
:03008900019D21B5
:03008A00019DCB0A
:03008B00019E5C77
:03008C00019EF2E0
:03008D00019F8E42
:03008E0001A01FAF
:03008F0001A0B21B
:0300900001A14586
:0300910001A1D7F3
:0300920001A26F59
:0300930001A308BE
:0300940001A39431
:0300950001A417AC
:0300960001A4AA18
:0300970001A53B85
:0300980001A5C8F7
:0300990001A6526B
:03009A0001A6DBE1
:03009B0001A76A50
:03009C0001A7E3D6
:03009D0001A8684F
:03009E0001A8F4C2
:03009F0001A9793B
:0300A00001A9FAB9
:0300A10001AA7D34
:0300A20001AAFCB4
:0300A30001AB7D31
:0300A40001ABFAB3
:0300A50001AC8328
:0300A60001AD06A3
:0300A70001AD7A2E
:0300A80001ADF9AE
:0300A90001AE7A2B
:0300AA0001AEEABA
:0300AB0001AF6A38
:0300AC0001AFDBC6
:0300AD0001B04956
:0300AE0001B0CBD3
:0300AF0001B14359
:0300B00001B1B1EA
:0300B10001B23267
:0300B20001B2A2F6
:0300B30001B30B8B
:0300B40001B3880D
:0300B50001B3F2A2
:0300B60001B46230
:0300B70001B4D1C0
:0300B80001B54847
:0300B90001B5A7E7
:0300BA0001B6127A
:0300BB0001B68407
:0300BC0001B6F09A
:0300BD0001B75B2D
:0300BE0001B7BFC8
:0300BF0001B81F66
:0300C00001B890F4
:0300C10001B8FD86
:0300C20001B96021
:0300C30001B9C7B9
:0300C40001BA2D51
:0300C50001BA9DE0
:0300C60001BB007B
:0300C70001BB5624
:0300C80001BBC1B8
:0300C90001BC2651
:0300CA0001BC7FF7
:0300CB0001BCE88D
:0300CC0001BD4132
:0300CD0001BDA6CC
:0300CE0001BDFD74
:0300CF0001BE650A
:0300D00001BEC2AC
:0300D10001BF125A
:0300D20001BF76F5
:0300D30001BFC6A4
:0300D40001C02C3C
:0300D50001C07EE9
:0300D60001C0DA8C
:0300D70001C13232
:0300D80001C18AD9
:0300D90001C1E47E
:0300DA0001C23729
:0300DB0001C299C6
:0300DC0001C2ED71
:0300DD0001C34517
:0300DE0001C390CB
:0300DF0001C3E476
:0300E00001C43325
:0300E10001C482D5
:0300E20001C4D97D
:0300E30001C52430
:0300E40001C580D3
:0300E50001C5D67C
:0300E60001C61838
:0300E70001C66DE2
:0300E80001C6B995
:0300E90001C7113B
:0300EA0001C756F5
:0300EB0001C7A1A9
:0300EC0001C7F257
:0300ED0001C83C0B
:0300EE0001C894B2
:0300EF0001C8D471
:0300F00001C9241F
:0300F10001C968DA
:0300F20001C9BE83
:0300F30001C9F848
:0300F40001CA4BF3
:0300F50001CA89B4
:0300F60001CACC70
:0300F70001CB2416
:0300F80001CB69D0
:0300F90001CBA593
:0300FA0001CBF047
:0300FB0001CC3BFA
:0300FC0001CC88AC
:0300FD0001CCC96A
:0300FE0001CD131E
:0300FF0001CD51DF
:0301000001CD87A7
:0301010001CDD15C
:0301020001CE1A11
:0301030001CE58D2
:0301040001CE9C8D
:0301050001CED751
:0301060001CF1313
:0301070001CF56CF
:0301080001CF9A8A
:0301090001CFDF44
:03010A0001D0150C
:03010B0001D054CC
:03010C0001D0948B
:03010D0001D0D747
:03010E0001D10B11
:03010F0001D149D2
:0301100001D18793
:0301110001D1D346
:0301120001D21106
:0301130001D24ACC
:0301140001D27E97
:0301150001D2B65E
:0301160001D2F122
:0301170001D328E9
:0301180001D367A9
:0301190001D3A669
:03011A0001D3DD31
:03011B0001D418F4
:03011C0001D44BC0
:03011D0001D47C8E
:03011E0001D4BD4C
:03011F0001D4F513
:0301200001D521E5
:0301210001D5669F
:0301220001D5986C
:0301230001D5CA39
:0301240001D60100
:0301250001D640C0
:0301260001D66B94
:0301270001D6A45A
:0301280001D6DB22
:0301290001D712E9
:03012A0001D734C6
:03012B0001D77485
:03012C0001D7A157
:03012D0001D7DA1D
:03012E0001D808ED
:03012F0001D839BB
:0301300001D8777C
:0301310001D8A151
:0301320001D8CA27
:0301330001D8FFF1
:0301340001D93AB4
:0301350001D9608D
:0301360001D98765
:0301370001D9B833
:0301380001D9EFFB
:0301390001DA21C7
:03013A0001DA489F
:03013B0001DA7F67
:03013C0001DAB332
:03013D0001DADA0A
:03013E0001DB0DD5
:03013F0001DB39A8
:0301400001DB6977
:0301410001DB944B
:0301420001DBB925
:0301430001DBECF1
:0301440001DC12C9
:0301450001DC3C9E
:0301460001DC6772
:0301470001DC9246
:0301480001DCC215
:0301490001DCE5F1
:03014A0001DD0CC8
:03014B0001DD448F
:03014C0001DD666C
:03014D0001DD973A
:03014E0001DDC808
:03014F0001DDE0EF
:0301500001DE10BD
:0301510001DE3993
:0301520001DE6A61
:0301530001DE8743
:0301540001DEAC1D
:0301550001DED5F3
:0301560001DEF8CF
:0301570001DF2C99
:0301580001DF4D77
:0301590001DF7152
:03015A0001DFA51D
:03015B0001DFCAF7
:03015C0001DFEBD5
:03015D0001E01BA3
:03015E0001E03984
:03015F0001E05468
:0301600001E08239
:0301610001E0A218
:0301620001E0CAEF
:0301630001E0F0C8
:0301640001E115A1
:0301650001E13085
:0301660001E16252
:0301670001E17B38
:0301680001E19C16
:0301690001E1CCE5
:03016A0001E1E7C9
:03016B0001E20BA3
:03016C0001E23677
:03016D0001E2525A
:03016E0001E27833
:03016F0001E29D0D
:0301700001E2C0E9
:0301710001E2D9CF
:0301720001E2F5B2
:0301730001E31A8B
:0301740001E34460
:0301750001E35D46
:0301760001E37B27
:0301770001E3A4FD
:0301780001E3C1DF
:0301790001E3DCC3
:03017A0001E40697
:03017B0001E42B71
:03017C0001E44853
:03017D0001E46832
:03017E0001E48712
:03017F0001E4ABED
:0301800001E4B7E0
:0301810001E4DEB8
:0301820001E50292
:0301830001E52172
:0301840001E53A58
:0301850001E55839
:0301860001E57F11
:0301870001E595FA
:0301880001E5C1CD
:0301890001E5E2AB
:03018A0001E5F19B
:03018B0001E61674
:03018C0001E62F5A
:03018D0001E64246
:03018E0001E66A1D
:03018F0001E68204
:0301900001E69FE6
:0301910001E6C2C2
:0301920001E6D7AC
:0301930001E6F092
:0301940001E7126E
:0301950001E72F50
:0301960001E74C32
:0301970001E7621B
:0301980001E780FC
:0301990001E798E3
:03019A0001E7B2C8
:03019B0001E7D3A6
:03019C0001E7E692
:03019D0001E8096D
:03019E0001E82550
:03019F0001E84331
:0301A00001E85D16
:0301A10001E87200
:0301A20001E88FE2
:0301A30001E8ABC5
:0301A40001E8C2AD
:0301A50001E8D39B
:0301A60001E8F27B
:0301A70001E90A61
:0301A80001E91F4B
:0301A90001E92F3A
:0301AA0001E95315
:0301AB0001E973F4
:0301AC0001E988DE
:0301AD0001E99CC9
:0301AE0001E9BCA8
:0301AF0001E9CE95
:0301B00001E9E181
:0301B10001E9F36E
:0301B20001EA0C53
:0301B30001EA2D31
:0301B40001EA3F1E
:0301B50001EA5408
:0301B60001EA70EB
:0301B70001EA8AD0
:0301B80001EAA3B6
:0301B90001EABC9C
:0301BA0001EAD186
:0301BB0001EAEA6C
:0301BC0001EAFA5B
:0301BD0001EB1241
:0301BE0001EB252D
:0301BF0001EB3819
:0301C00001EB53FD
:0301C10001EB64EB
:0301C20001EB80CE
:0301C30001EB96B7
:0301C40001EBAF9D
:0301C50001EBC388
:0301C60001EBD476
:0301C70001EBEB5E
:0301C80001EBF751
:0301C90001EC1036
:0301CA0001EC291C
:0301CB0001EC3E06
:0301CC0001EC54EF
:0301CD0001EC65DD
:0301CE0001EC7DC4
:0301CF0001EC9DA3
:0301D00001ECB18E
:0301D10001ECBC82
:0301D20001ECCF6E
:0301D30001ECD963
:0301D40001ECF348
:0301D50001ED1128
:0301D60001ED1721
:0301D70001ED2A0D
:0301D80001ED4BEB
:0301D90001ED61D4
:0301DA0001ED71C3
:0301DB0001ED76BD
:0301DC0001ED969C
:0301DD0001EDA38E
:0301DE0001EDB37D
:0301DF0001EDC669
:0301E00001EDE24C
:0301E10001EDF33A
:0301E20001EE0922
:0301E30001EE1E0C
:0301E40001EE2603
:0301E50001EE41E7
:0301E60001EE56D1
:0301E70001EE5ACC
:0301E80001EE78AD
:0301E90001EE7DA7
:0301EA0001EE8B98
:0301EB0001EEA57D
:0301EC0001EEBF62
:0301ED0001EEC15F
:0301EE0001EED44B
:0301EF0001EEED31
:0301F00001EF0B11
:0301F10001EF1407
:0301F20001EF21F9
:0301F30001EF3CDD
:0301F40001EF3EDA
:0301F50001EF50C7
:0301F60001EF6BAB
:0301F70001EF799C
:0301F80001EF8E86
:0301F90001EF9B78
:0301FA0001EFA86A
:0301FB0001EFB859
:0301FC0001EFC749
:0301FD0001EFDE31
:0301FE0001EFEA24
:0301FF0001EFF617
:00000001ff
