:020000040000FA
:0100000040BF
:010001003FBF
:010002003FBE
:010003003FBD
:010004003FBC
:010005003FBB
:010006003FBA
:010007003FB9
:010008003FB8
:010009003EB8
:01000A003EB7
:01000B003EB6
:01000C003EB5
:01000D003EB4
:01000E003EB3
:01000F003EB2
:010010003EB1
:010011003DB1
:010012003DB0
:010013003DAF
:010014003DAE
:010015003DAD
:010016003DAC
:010017003DAB
:010018003DAA
:010019003DA9
:01001A003CA9
:01001B003CA8
:01001C003CA7
:01001D003CA6
:01001E003CA5
:01001F003CA4
:010020003CA3
:010021003CA2
:010022003CA1
:010023003BA1
:010024003BA0
:010025003B9F
:010026003B9E
:010027003B9D
:010028003B9C
:010029003B9B
:01002A003B9A
:01002B003B99
:01002C003A99
:01002D003A98
:01002E003A97
:01002F003A96
:010030003A95
:010031003A94
:010032003A93
:010033003A92
:010034003A91
:010035003991
:010036003990
:01003700398F
:01003800398E
:01003900398D
:01003A00398C
:01003B00398B
:01003C00398A
:01003D003989
:01003E003988
:01003F003888
:010040003887
:010041003886
:010042003885
:010043003884
:010044003883
:010045003882
:010046003881
:010047003880
:01004800387F
:01004900387E
:01004A00377E
:01004B00377D
:01004C00377C
:01004D00377B
:01004E00377A
:01004F003779
:010050003778
:010051003777
:010052003776
:010053003775
:010054003675
:010055003674
:010056003673
:010057003672
:010058003671
:010059003670
:01005A00366F
:01005B00366E
:01005C00366D
:01005D00366C
:01005E00366B
:01005F00356B
:01006000356A
:010061003569
:010062003568
:010063003567
:010064003566
:010065003565
:010066003564
:010067003563
:010068003562
:010069003561
:01006A003560
:01006B003460
:01006C00345F
:01006D00345E
:01006E00345D
:01006F00345C
:01007000345B
:01007100345A
:010072003459
:010073003458
:010074003457
:010075003456
:010076003455
:010077003355
:010078003354
:010079003353
:01007A003352
:01007B003351
:01007C003350
:01007D00334F
:01007E00334E
:01007F00334D
:01008000334C
:01008100334B
:01008200334A
:01008300324A
:010084003249
:010085003248
:010086003247
:010087003246
:010088003245
:010089003244
:01008A003243
:01008B003242
:01008C003241
:01008D003240
:01008E00323F
:01008F00323E
:01009000313E
:01009100313D
:01009200313C
:01009300313B
:01009400313A
:010095003139
:010096003138
:010097003137
:010098003136
:010099003135
:01009A003134
:01009B003133
:01009C003132
:01009D003032
:01009E003031
:01009F003030
:0100A000302F
:0100A100302E
:0100A200302D
:0100A300302C
:0100A400302B
:0100A500302A
:0100A6003029
:0100A7003028
:0100A8003027
:0100A9003026
:0100AA003025
:0100AB002F25
:0100AC002F24
:0100AD002F23
:0100AE002F22
:0100AF002F21
:0100B0002F20
:0100B1002F1F
:0100B2002F1E
:0100B3002F1D
:0100B4002F1C
:0100B5002F1B
:0100B6002F1A
:0100B7002F19
:0100B8002F18
:0100B9002F17
:0100BA002E17
:0100BB002E16
:0100BC002E15
:0100BD002E14
:0100BE002E13
:0100BF002E12
:0100C0002E11
:0100C1002E10
:0100C2002E0F
:0100C3002E0E
:0100C4002E0D
:0100C5002E0C
:0100C6002E0B
:0100C7002E0A
:0100C8002E09
:0100C9002D09
:0100CA002D08
:0100CB002D07
:0100CC002D06
:0100CD002D05
:0100CE002D04
:0100CF002D03
:0100D0002D02
:0100D1002D01
:0100D2002D00
:0100D3002DFF
:0100D4002DFE
:0100D5002DFD
:0100D6002DFC
:0100D7002DFB
:0100D8002DFA
:0100D9002CFA
:0100DA002CF9
:0100DB002CF8
:0100DC002CF7
:0100DD002CF6
:0100DE002CF5
:0100DF002CF4
:0100E0002CF3
:0100E1002CF2
:0100E2002CF1
:0100E3002CF0
:0100E4002CEF
:0100E5002CEE
:0100E6002CED
:0100E7002CEC
:0100E8002CEB
:0100E9002BEB
:0100EA002BEA
:0100EB002BE9
:0100EC002BE8
:0100ED002BE7
:0100EE002BE6
:0100EF002BE5
:0100F0002BE4
:0100F1002BE3
:0100F2002BE2
:0100F3002BE1
:0100F4002BE0
:0100F5002BDF
:0100F6002BDE
:0100F7002BDD
:0100F8002BDC
:0100F9002BDB
:0100FA002BDA
:0100FB002ADA
:0100FC002AD9
:0100FD002AD8
:0100FE002AD7
:0100FF002AD6
:010100002AD4
:010101002AD3
:010102002AD2
:010103002AD1
:010104002AD0
:010105002ACF
:010106002ACE
:010107002ACD
:010108002ACC
:010109002ACB
:01010A002ACA
:01010B002AC9
:01010C002AC8
:01010D0029C8
:01010E0029C7
:01010F0029C6
:0101100029C5
:0101110029C4
:0101120029C3
:0101130029C2
:0101140029C1
:0101150029C0
:0101160029BF
:0101170029BE
:0101180029BD
:0101190029BC
:01011A0029BB
:01011B0029BA
:01011C0029B9
:01011D0029B8
:01011E0029B7
:01011F0029B6
:0101200028B6
:0101210028B5
:0101220028B4
:0101230028B3
:0101240028B2
:0101250028B1
:0101260028B0
:0101270028AF
:0101280028AE
:0101290028AD
:01012A0028AC
:01012B0028AB
:01012C0028AA
:01012D0028A9
:01012E0028A8
:01012F0028A7
:0101300028A6
:0101310028A5
:0101320028A4
:0101330028A3
:0101340027A3
:0101350027A2
:0101360027A1
:0101370027A0
:01013800279F
:01013900279E
:01013A00279D
:01013B00279C
:01013C00279B
:01013D00279A
:01013E002799
:01013F002798
:010140002797
:010141002796
:010142002795
:010143002794
:010144002793
:010145002792
:010146002791
:010147002790
:01014800278F
:01014900268F
:01014A00268E
:01014B00268D
:01014C00268C
:01014D00268B
:01014E00268A
:01014F002689
:010150002688
:010151002687
:010152002686
:010153002685
:010154002684
:010155002683
:010156002682
:010157002681
:010158002680
:01015900267F
:01015A00267E
:01015B00267D
:01015C00267C
:01015D00267B
:01015E00267A
:01015F00257A
:010160002579
:010161002578
:010162002577
:010163002576
:010164002575
:010165002574
:010166002573
:010167002572
:010168002571
:010169002570
:01016A00256F
:01016B00256E
:01016C00256D
:01016D00256C
:01016E00256B
:01016F00256A
:010170002569
:010171002568
:010172002567
:010173002566
:010174002565
:010175002564
:010176002464
:010177002463
:010178002462
:010179002461
:01017A002460
:01017B00245F
:01017C00245E
:01017D00245D
:01017E00245C
:01017F00245B
:01018000245A
:010181002459
:010182002458
:010183002457
:010184002456
:010185002455
:010186002454
:010187002453
:010188002452
:010189002451
:01018A002450
:01018B00244F
:01018C00244E
:01018D00244D
:01018E00244C
:01018F00234C
:01019000234B
:01019100234A
:010192002349
:010193002348
:010194002347
:010195002346
:010196002345
:010197002344
:010198002343
:010199002342
:01019A002341
:01019B002340
:01019C00233F
:01019D00233E
:01019E00233D
:01019F00233C
:0101A000233B
:0101A100233A
:0101A2002339
:0101A3002338
:0101A4002337
:0101A5002336
:0101A6002335
:0101A7002334
:0101A8002333
:0101A9002233
:0101AA002232
:0101AB002231
:0101AC002230
:0101AD00222F
:0101AE00222E
:0101AF00222D
:0101B000222C
:0101B100222B
:0101B200222A
:0101B3002229
:0101B4002228
:0101B5002227
:0101B6002226
:0101B7002225
:0101B8002224
:0101B9002223
:0101BA002222
:0101BB002221
:0101BC002220
:0101BD00221F
:0101BE00221E
:0101BF00221D
:0101C000221C
:0101C100221B
:0101C200221A
:0101C3002219
:0101C4002119
:0101C5002118
:0101C6002117
:0101C7002116
:0101C8002115
:0101C9002114
:0101CA002113
:0101CB002112
:0101CC002111
:0101CD002110
:0101CE00210F
:0101CF00210E
:0101D000210D
:0101D100210C
:0101D200210B
:0101D300210A
:0101D4002109
:0101D5002108
:0101D6002107
:0101D7002106
:0101D8002105
:0101D9002104
:0101DA002103
:0101DB002102
:0101DC002101
:0101DD002100
:0101DE0021FF
:0101DF0021FE
:0101E00021FD
:0101E10020FD
:0101E20020FC
:0101E30020FB
:0101E40020FA
:0101E50020F9
:0101E60020F8
:0101E70020F7
:0101E80020F6
:0101E90020F5
:0101EA0020F4
:0101EB0020F3
:0101EC0020F2
:0101ED0020F1
:0101EE0020F0
:0101EF0020EF
:0101F00020EE
:0101F10020ED
:0101F20020EC
:0101F30020EB
:0101F40020EA
:0101F50020E9
:0101F60020E8
:0101F70020E7
:0101F80020E6
:0101F90020E5
:0101FA0020E4
:0101FB0020E3
:0101FC0020E2
:0101FD0020E1
:0101FE0020E0
:0101FF0020DF
:00000001ff
