:020000040000FA
:03000000000000FD
:0300010003803F3A
:030002000300FFF9
:0300030002823C3A
:030004000203F8FC
:0300050001863041
:030006000108E509
:03000700008C1555
:03000800000FC026
:030009000393E678
:03000A0003188553
:03000B00029D9DB6
:03000C0002232CA0
:03000D0001A93412
:03000E00012FB20D
:03000F0000B6A692
:03001000003E0FA0
:0300110003C5ED37
:03001200034E3F5B
:0300130002D7050C
:0300140002603D4A
:0300150001E9E717
:030016000174036F
:0300170000FE9058
:0300180000898DCF
:030019000014F9D7
:03001A0003A0D56B
:03001B00032D1E94
:03001C0002B9D650
:03001D000246FA9E
:03001E0001D48B7F
:03001F00016288F3
:0300200000F0F0FD
:03002100007FC39A
:03002200000F00CC
:03002300039EA792
:03002400032EB7F1
:0300250002BF2FE8
:0300260002500E77
:0300270001E1559F
:030028000173035E
:03002900010517B7
:03002A00009791AB
:03002B00002A6F39
:03002C0003BDB25F
:03002D0003515923
:03002E0002E56484
:03002F000279D182
:03003000020EA01D
:0300310001A3D256
:030032000139652C
:0300330000CF58A3
:030034000065ACB8
:0300350003FC6069
:03003600039372BF
:03003700032AE4B5
:0300380002C2B44D
:03003900025AE187
:03003A0001F36C63
:03003B00018C54E1
:03003C0001259803
:03003D0000BF37CA
:03003E0000593234
:03003F0003F38840
:03004000038E38F4
:030041000329424E
:0300420002C4A64F
:03004300026063F5
:0300440001FC7844
:030045000198E53A
:030046000135A9D8
:0300470000D2C51F
:030048000070380D
:03004900000E00A6
:03004A0003AC1FE5
:03004B00034A93D2
:03004C0002E95C6A
:03004D00028879AD
:03004E000227EB9B
:03004F0001C7B036
:030050000167C87D
:0300510001083370
:0300520000A8F112
:03005300004A0060
:0300540003EB615A
:03005500038D1404
:03005600032F175E
:0300570002D16A69
:0300580002740D22
:030059000217008B
:03005A0001BA42A6
:03005B00015DD272
:03005C000101B2ED
:03005D0000A5DE1D
:03005E00004A59FC
:03005F0003EF218B
:03006000039435D1
:03006100033996CA
:0300620002DF4377
:0300630002853CD7
:03006400022B80EC
:0300650001D20FB6
:030066000178E935
:0300670001200D68
:0300680000C77B53
:03006900006F32F3
:03006A000017324A
:03006B0003BF7B55
:03006C0003680D19
:03006D000310E697
:03006E0002BA08CB
:03006F00026371B8
:03007000020D205E
:0300710001B717BD
:03007200016154D5
:03007300010BD7A7
:0300740000B69F34
:030075000061AD7A
:03007600000D007A
:0300770003B89833
:03007800036474AA
:03007900031094DD
:03007A0002BCF8CD
:03007B000269A077
:03007C0002168ADF
:03007D0001C3B705
:03007E00017127E6
:03007F00011ED986
:0300800000CCCCE5
:03008100007B0100
:03008200002978DA
:0300830003D82F70
:03008400038727C8
:03008500033660DF
:0300860002E5D8B8
:030087000295904F
:03008800024587A7
:0300890001F5BEC0
:03008A0001A63399
:03008B000156E833
:03008C000107DA8F
:03008D0000B90AAD
:03008E00006A788D
:03008F00001C232F
:0300900003CE0C90
:03009100038031B8
:03009200033293A3
:0300930002E53251
:0300940002980CC3
:03009500024B22F9
:0300960001FE74F4
:0300970001B200B3
:030098000165C837
:030099000119CA80
:03009A0000CE078E
:03009B0000827E62
:03009C0000372FFB
:03009D0003EC1A57
:03009E0003A13D7E
:03009F0003569A6B
:0300A000030C301E
:0300A10002C1FF9A
:0300A200027806DB
:0300A300022E45E5
:0300A40001E4BBB9
:0300A500019B6A52
:0300A600015250B4
:0300A70001096CE0
:0300A80000C0C0D5
:0300A90000784B91
:0300AA0000300C17
:0300AB0003E80265
:0300AC0003A02F7F
:0300AD0003589263
:0300AE0003112A11
:0300AF0002C9F78C
:0300B0000282FACF
:0300B100023C31DD
:0300B20001F59CB9
:0300B30001AF3C5E
:0300B400016910CF
:0300B5000123180C
:0300B60000DD5317
:0300B7000097C2ED
:0300B8000052648F
:0300B900000D38FF
:0300BA0003C84038
:0300BB0003837A42
:0300BC00033EE719
:0300BD0002FA85BF
:0300BE0002B65631
:0300BF0002725872
:0300C000022E8B82
:0300C10001EAF061
:0300C20001A7860D
:0300C30001644C89
:0300C400012143D4
:0300C50000DE6BEF
:0300C600009BC3D9
:0300C70000594B92
:0300C8000017021C
:0300C90003D4EA73
:0300CA000393009D
:0300CB0003514698
:0300CC00030FBB64
:0300CD0002CE5E02
:0300CE00028D316F
:0300CF00024C31AF
:0300D000020B60C0
:0300D10001CABDA4
:0300D200018A4858
:0300D300014A00DF
:0300D4000109E639
:0300D50000C9F966
:0300D600008A3964
:0300D700004AA636
:0300D800000B40DA
:0300D90003CC074E
:0300DA00038CF99B
:0300DB00034E18B9
:0300DC00030F63AC
:0300DD0002D0D975
:0300DE0002927C0F
:0300DF000254497F
:0300E000021642C3
:0300E10001D866DD
:0300E200019AB5CB
:0300E300015D2F8D
:0300E400011FD326
:0300E50000E2A294
:0300E60000A59BD7
:0300E7000068BEF0
:0300E800002C0BDE
:0300E90003EF81A1
:0300EA0003B3213C
:0300EB000376EBAE
:0300EC00033ADDF7
:0300ED0002FEF917
:0300EE0002C33E0C
:0300EF000287ABDA
:0300F000024C417E
:0300F1000210FFFB
:0300F20001D5E64F
:0300F300019AF47B
:0300F40001602B7D
:0300F50001258959
:0300F60000EB0F0D
:0300F70000B0BC9A
:0300F800007691FE
:0300F900003C8D3B
:0300FA000002B051
:0300FB0003C8F93E
:0300FC00038F6906
:0300FD00035600A7
:0300FE00031CBD23
:0300FF0002E3A178
:0301000002AAAAA6
:030101000271DAAE
:0301020002392F90
:030103000200AA4D
:0301040001C84AE5
:0301050001900F57
:030106000157FAA4
:0301070001200ACA
:0301080000E83FCD
:0301090000B098AB
:03010A0000791762
:03010B000041B9F7
:03010C00000A8066
:03010D0003D36BAE
:03010E00039C7BD4
:03010F000365AED7
:03011000032F05B5
:0301110002F87F72
:0301120002C21D09
:03011300028BDF7D
:030114000255C4CD
:03011500021FCCFA
:0301160001E9F606
:0301170001B444EC
:03011800017EB5B0
:0301190001494752
:03011A000113FDD1
:03011B0000DED52E
:03011C0000A9CF68
:03011D000074EB80
:03011E0000402975
:03011F00000B884A
:0301200003D70AF8
:0301210003A2AD89
:03012200036E71F8
:03012300033A5745
:0301240003065E71
:0301250002D2867D
:03012600029ECF67
:03012700026B3830
:030128000237C3D8
:0301290002046E5F
:03012A0001D139C7
:03012B00019E250D
:03012C00016B3133
:03012D0001385D39
:03012E000105A91F
:03012F0000D315E5
:0301300000A0A08C
:03013100006E4B12
:03013200003C1678
:03013300000A00BF
:0301340003D809E4
:0301350003A632EC
:0301360003747AD5
:030137000342E0A0
:030138000311654B
:0301390002E009D8
:03013A0002AECC46
:03013B00027DAD95
:03013C00024CADC5
:03013D00021BCAD8
:03013E0001EB06CC
:03013F0001BA60A2
:030140000189D85A
:0301410001596EF3
:030142000129216F
:0301430000F8F2CF
:0301440000C8E10F
:030145000098ED32
:0301460000691637
:0301470000395D1F
:030148000009C0EB
:0301490003DA4195
:03014A0003AADE27
:03014B00037B989B
:03014C00034C6FF2
:03014D00031D632C
:03014E0002EE724C
:03014F0002BF9F4D
:030150000290E733
:0301510002624CFB
:030152000233CDA8
:0301530002056A38
:0301540001D722AE
:0301550001A8F707
:03015600017AE744
:03015700014CF365
:03015800011F1A6A
:0301590000F15C56
:03015A0000C3BA25
:03015B00009633D8
:03015C000068C870
:03015D00003B77ED
:03015E00000E414F
:03015F0003E12693
:0301600003B425C0
:03016100038740D1
:03016200035A75C8
:03016300032DC4A5
:0301640003012E66
:0301650002D4B110
:0301660002A8509C
:03016700027C080F
:03016800024FDA69
:030169000223C6A8
:03016A0001F7CCCE
:03016B0001CBECD9
:03016C0001A025CA
:03016D00017478A2
:03016E000148E461
:03016F00011D6A05
:0301700000F20991
:0301710000C6C104
:03017200009B925D
:0301730000707D9C
:03017400004580C3
:03017500001A9CD1
:0301760003EFD1C3
:0301770003C51F9E
:03017800039A8562
:030179000370040C
:03017A0003459B9F
:03017B00031B4B18
:03017C0002F1137A
:03017D0002C6F3C4
:03017E00029CEBF5
:03017F000272FC0D
:030180000249240D
:03018100021F64F6
:0301820001F5BCC8
:0301830001CC2C80
:0301840001A2B322
:03018500017952AB
:030186000150091C
:030187000126D678
:0301880000FDBCBB
:0301890000D4B8E7
:03018A0000ABCCFB
:03018B000082F6F9
:03018C00005A38DE
:03018D00003191AD
:03018E0000090065
:03018F0003E08604
:0301900003B8238E
:03019100038FD702
:030192000367A15F
:03019300033F82A5
:03019400031779D5
:0301950002EF87EF
:0301960002C7ABF2
:03019700029FE5DF
:03019800027835B5
:0301990002509B76
:03019A0002291720
:03019B000201AAB4
:03019C0001DA5233
:03019D0001B30F9C
:03019E00018BE3EF
:03019F000164CC2C
:0301A000013DCB53
:0301A1000116DF65
:0301A20000F00862
:0301A30000C94749
:0301A40000A29C1A
:0301A500007C05D6
:0301A6000055847D
:0301A700002F170F
:0301A8000008C08C
:0301A90003E27EF0
:0301AA0003BC5043
:0301AB0003963880
:0301AC00037034A9
:0301AD00034A45BD
:0301AE0003246ABD
:0301AF0002FEA4A9
:0301B00002D8F280
:0301B10002B35541
:0301B200028DCDEE
:0301B30002685887
:0301B4000242F80C
:0301B500021DAC7C
:0301B60001F874D9
:0301B70001D35021
:0301B80001AE4055
:0301B90001894475
:0301BA0001645C81
:0301BB00013F877A
:0301BC00011AC75E
:0301BD0000F61A2F
:0301BE0000D180ED
:0301BF0000ACFA97
:0301C0000088882C
:0301C100006429AE
:0301C200003FDD1E
:0301C300001BA579
:0301C40003F780BE
:0301C50003D36EF3
:0301C60003AF6F15
:0301C700038B8423
:0301C8000367AB1F
:0301C9000343E508
:0301CA00032032DD
:0301CB0002FC92A1
:0301CC0002D90550
:0301CD0002B58AEE
:0301CE0002922278
:0301CF00026ECDF0
:0301D000024B8A55
:0301D10002285AA7
:0301D20002053CE7
:0301D30001E23016
:0301D40001BF3731
:0301D500019C503A
:0301D60001797B31
:0301D7000156B816
:0301D800013408E7
:0301D900011169A8
:0301DA0000EEDD57
:0301DB0000CC62F3
:0301DC0000A9F97E
:0301DD000087A2F6
:0301DE0000655D5C
:0301DF0000432AB0
:0301E000002108F3
:0301E10003FEF822
:0301E20003DCF942
:0301E30003BB0C4F
:0301E4000399304C
:0301E50003776538
:0301E6000355AC12
:0301E700033405D9
:0301E80003126E91
:0301E90002F0E938
:0301EA0002CF75CC
:0301EB0002AE1150
:0301EC00028CBFC3
:0301ED00026B7E24
:0301EE00024A4E74
:0301EF0002292FB3
:0301F000020820E2
:0301F10001E72201
:0301F20001C6350E
:0301F30001A5590A
:0301F40001848DF6
:0301F5000163D2D1
:0301F6000143279B
:0301F70001228D55
:0301F800010204FD
:0301F90000E18A98
:0301FA0000C12120
:0301FB0000A0C899
:0301FC0000808000
:0301FD0000604857
:0301FE000040209E
:0301FF00002008D5
:00000001ff
